:030000000200D229
:0C00D200787FE4F6D8FD7581070200037A
:0900DE00D2A0C2A1C2A3D2A42247
:0900E700D2A0C2A1C2A3C2A4224E
:0900F000C2A0C2A1C2A3D2A42245
:0900F900C2A0D2A1D2A3C2A4222C
:0F00C300D2A0D2A1D2A3D2A47F647E0002003BC0
:10003B00E4FDFCC3ED9FEE6480F8EC6480985015F2
:10004B00E4FBFA0BBB00010ABA2EF8BBE0F50DBDC1
:05005B0000010C80DE35
:01006000227D
:1000870030960320970C2094033093067E007F015F
:050097008003E4FEFF00
:01009C002241
:10009D0020960330970C3094032093067E007F0149
:0500AD008003E4FEFFEA
:0100B200222B
:0F00B300E4FFFE2096062094030F8003E4FEFF77
:0100C200221B
:10000300D2A2D2A5120087EF4E60051200E7800A44
:1000130012009DEF4E60091200F07F017E008011F7
:100023001200B3EF4E600D1200C31200DE7FF47EA8
:08003300010200611200DE224F
:10006100E4FDFCC3ED9FEE6480F8EC6480985015CC
:10007100E4FBFA0BBB00010AEB64784A70F50DBD95
:0500810000010C80DE0F
:010086002257
:00000001FF
