:030000000201C535
:0C01C500787FE4F6D8FD75810A02000383
:1000AF007475726E207269676874007475726E2051
:1000BF006C6566740073746F7000666F727761722F
:0200CF006400CB
:0901D100D2A0C2A1C2A3D2A42253
:0901DA00D2A0C2A1C2A3C2A4225A
:0901E300C2A0C2A1C2A3D2A42251
:0901EC00C2A0D2A1D2A3C2A42238
:0F01B600D2A0D2A1D2A3D2A47F647E000200897E
:10008900E4FDFCC3ED9FEE6480F8EC6480985015A4
:10009900E4FBFA0BBB00010ABA2EF8BBE0F50DBD73
:0500A90000010C80DEE7
:0100AE00222F
:10013F0030960320970C2094033093067E007F01A6
:05014F008003E4FEFF47
:010154002288
:1001550020960330970C3094032093067E007F0190
:050165008003E4FEFF31
:01016A002272
:0F01A600E4FFFE2096062094030F8003E4FEFF83
:0101B5002227
:10000300D2A2D2A512013FEF4E600B1201DA7BFFA1
:100013007A0079AF8010120155EF4E60141201E39C
:100023007BFF7A0079BA7F8012005E7F017E0080B9
:10003300181201A6EF4E60141201B67A0079C412A9
:10004300005A1200537FF47E010200D112005322A2
:1000D100E4FDFCC3ED9FEC9E5015E4FBFA0BBB0065
:0F00E100010AEB64784A70F50DBD00010C80E454
:0100F00022ED
:0D010C00C2B68E807F05120119D2B57F05A5
:0C011900EF6009E4FE0EBEE1FC1F80F464
:0101250022B7
:10019500C2B5C2B7D2B6D2B5AF80EF20E7F2C2B5CD
:0101A5002237
:10016B00AE07120195C2B5C2B712010CC2B57F0121
:05017B007E000200D12E
:10018000AE07120195C2B5D2B712010CC2B57F01FC
:050190007E000200D119
:1000F1007F3812016B7F0C12016B7F0612016B7F3F
:0B0101000112016B7F017E000200D1A3
:0B0053001201D17A0079C97BFF7F8089
:10005E008B088A09890A12016BAB08AA09A90A1230
:10006E000126D394004013050AE50A70020509140F
:0B007E00F9120126FF12018080DF2232
:10012600BB010689828A83E0225002E722BBFE02D7
:09013600E32289828A83E493220A
:00000001FF
