:0300000002007F7C
:0C007F00787FE4F6D8FD758107020003CD
:10000300D2A2D2A512005FEF4E6005120094800ABF
:1000130012006FEF4E600A12009D7F017E00020006
:100023003912005FEF4E600A12006FEF4E60030259
:0600330000AF12008B2259
:09008B00D2A0C2A1C2A3D2A4229A
:09009400D2A0C2A1C2A3C2A422A1
:09009D00C2A0C2A1C2A3D2A42298
:0900A600C2A0D2A1D2A3C2A4227F
:0900AF00C2A0C2A1C2A3C2A42296
:10003900E4FDFCC3ED9FEE6480F8EC6480985015F4
:10004900E4FBFA0BBB00010AEB64784A70F50DBDBD
:0500590000010C80DE37
:01005E00227F
:0F005F00E4FFFE2096063094030F8003E4FEFFBB
:01006E00226F
:0F006F00E4FFFE3096062094030F8003E4FEFFAB
:01007E00225F
:00000001FF
