:030000000201D525
:0C01D500787FE4F6D8FD75810C02000371
:1000BF007475726E207269676874007475726E2041
:1000CF006C6566740073746F7000666F727761721F
:0200DF006400BB
:0901E100D2A0C2A1C2A3D2A42243
:0901EA00D2A0C2A1C2A3C2A4224A
:0901F300C2A0C2A1C2A3D2A42241
:0901FC00C2A0D2A1D2A3C2A42228
:0F01C600D2A0D2A1D2A3D2A47F647E000200995E
:10009900E4FDFCC3ED9FEE6480F8EC648098501594
:1000A900E4FBFA0BBB00010ABA2EF8BBE0F50DBD63
:0500B90000010C80DED7
:0100BE00221F
:10014F0030960320970C2094033093067E007F0196
:05015F008003E4FEFF37
:010164002278
:1001650020960330970C3094032093067E007F0180
:050175008003E4FEFF21
:01017A002262
:0F01B600E4FFFE2096062094030F8003E4FEFF73
:0101C5002217
:10000300D2A2D2A512014FEF4E600B1201EA7BFF81
:100013007A0079BF8010120165EF4E60141201F36C
:100023007BFF7A0079CA7F8012005E7F017E0080A9
:10003300181201B6EF4E60141201C67A0079D41279
:10004300005A1200537FF47E010200E11200532292
:1000E100E4FDFCC3ED9FEC9E5015E4FBFA0BBB0055
:0F00F100010AEB64784A70F50DBD00010C80E444
:0101000022DC
:0D011C00C2918E807F05120129D2927F05CD
:0C012900EF6009E4FE0EBEE1FC1F80F454
:0101350022A7
:1001A500C292C290D291D292AF80EF20E7F2C29272
:0101B5002227
:10017B00AE071201A5C292C29012011CC2927F015E
:05018B007E000200E10E
:10019000AE071201A5C292D29012011CC2927F0139
:0501A0007E000200E1F9
:100101007F3812017B7F0C12017B7F0612017B7FFE
:0B0111000112017B7F017E000200E173
:0B0053001201E17A0079D97BFF7F8069
:08005E008F088B098A0A890B47
:10006600E4F50CAB09AA0AA90B1201366021E508D2
:10007600250CFF12017BAB09050BE50BAA0A7002E2
:10008600050A14F9120136FF120190050C80D4E41A
:02009600F50C67
:010098002245
:10013600BB010689828A83E0225002E722BBFE02C7
:09014600E32289828A83E49322FA
:00000001FF
